:100000000C94F8020C9441030C9441030C944103AA
:100010000C9441030C9441030C9441030C94410350
:100020000C9441030C9441030C94DE1E0C94B41FF9
:100030000C9429150C9441030C9441030C94410336
:100040000C9441030C9441030C9441030C94410320
:100050000C9441030C9491150C9441030C944103AE
:100060000C9441030C9441030C9441030C94410300
:100070000C9441030C9441030C9441030C944103F0
:100080000C9441030C9441030C9441030C944103E0
:100090000C9441030C944103020404040F0406046D
:1000A00008040A040C040E041104130415042004AB
:1000B000170419041B041D041F0422041C0C1C0C2F
:1000C000560C560C950CB50C280E280EF70C280E65
:1000D000A70DA70D1A0E280E280E220EB40DB40D72
:1000E000B40DB40DB40DB40DB40DB40DB40DB40D08
:1000F000B40DB40DB40DB40DB40DB40DC60DD40DC6
:10010000DB0DE20DEC0DBB0EBB0ECD0ECD0EC40E05
:10011000CD0ECD0ECD0EBB0EBB0EC90ECD0ECD0E2F
:10012000C90E25204C203E214C203E219820BB208A
:100130003E2111212021290000003A003B003C0013
:100140003D003E0000003F00000040004100420032
:1001500043003A0000000000000000000000000022
:10016000000035001E001F00200021002200230097
:1001700024002500260027002D002E00310052000B
:1001800000000000000000000000000000002B0044
:1001900014001A000800150017001C0018000C00BD
:1001A000120013002F003000280050000000000053
:1001B00000000000000000000000390004001600EC
:1001C000070009000A000B000D000E000F003300AD
:1001D000340002514C004F000000000000000000FD
:1001E00000000000000001511D001B000600190066
:1001F00005001100100036003700380000002C0008
:100200002A00510000000000000000000000000073
:1002100000000000000000000000000000000000DE
:1002200000000000000000000000000000000000CE
:10023000E500E600E700E000E100E200E300010085
:100240000000440045000100010001000000010021
:1002500000000100010001000100A80000000000F2
:1002600000000000000000000000550059005A0086
:100270005B005C005D005E005F006000610062008A
:100280005600570001004B00000000000000000075
:100290000000000000000100010001000100010059
:1002A0000100010001000100010046000100010001
:1002B00058004A000000000000000000000000009C
:1002C000000001000100470001000100010048009A
:1002D00001000100010001000100000049004D0083
:1002E000000000000000000000000000000001000D
:1002F00001000100010001000100530001000100A4
:10030000630054000000010001004E0000000000E6
:1003100000000000000000000000000000000000DD
:1003200000000000000000000000000000000000CD
:1003300000000000000000000100010001000100B9
:1003400001000100010001000000010001000100A6
:100350000100010000000100000001000100010097
:100360000100A800000000000000000000000000E4
:100370000000010001000100010001000100010076
:100380000100010001000100010001000100A900BD
:10039000000000000000000000000000000001005C
:1003A0000100010001000100010001000100010045
:1003B0000100010001000100AF00AC0000000000DE
:1003C000000000000000000000000100010001002A
:1003D0000100010001000100010001000100010015
:1003E00001000100BB00AB000000000000000000A5
:1003F000000000000000000001000100B200010048
:100400000100010001000100010001000000AE0038
:10041000BC00AA0000000000000000000000000076
:1004200000000000000000000000000000000000CC
:1004300000000000000000000000000000000000BC
:10044000010001000100010001000100010004039E
:1004500030000000140341006D0069006700610076
:1004600020003600300030000000140343006F000D
:100470006D006D006F0064006F0072006500000089
:100480000403090409027400040100A0FA0904002D
:1004900000010301010009211101000122400007B0
:1004A00005810308000A0904010001030102000993
:1004B0002111010001224D000705820308000A09ED
:1004C000040200010300000009211101000122368D
:1004D000000705830308000A090403000203000063
:1004E00000092111010001222200070584032000D8
:1004F000010705040320000112011001000000089B
:10050000EDFE00000100010203010631FF0974A1A4
:10051000010975150026FF009520750881020976EE
:10052000150026FF00952075089102C0050109807D
:10053000A10185021601002603001A81002A83000A
:10054000751095018100C0050C0901A101850316F4
:100550000100269C021A01002A9C02751095018157
:1005600000C005010902A1010901A1000509190145
:100570002905150025019505750181029501750371
:1005800081010501093009311581257F9502750822
:10059000810609381581257F950175088106050CAE
:1005A0000A38021581257F950175088106C0C005AE
:1005B000010906A101050719E029E71500250195A4
:1005C0000875018102950175088101050819012945
:1005D00005950575019102950175039101050719AE
:1005E0000029FF150026FF00950675088100C00050
:1005F00011241FBECFEFD0E2DEBFCDBF04B603FE95
:1006000027C08091310290913202A0913302B091C3
:1006100034028730904BA740B04BD1F41092310296
:1006200010923202109233021092340214BE84B738
:10063000877F84BF0FB6F894A89580916000886189
:1006400080936000109260000FBEE0E0FEEF09951D
:1006500011E0A0E0B1E0ECECF3E400E00BBF02C07D
:1006600007900D92AE34B107D9F722E0AEE4B1E0C5
:1006700001C01D92A133B207E1F70E94061C0C9441
:10068000E4210C940000509A58983F9A479A0C9491
:100690009107229A81FF02C02A9A01C02A983E9AA5
:1006A00080FF02C0469A01C046983D9A82FF02C070
:1006B000459A01C045980C94E00461110BC0FC01FF
:1006C0008281882321F085EE0E94610A03C085EEB5
:1006D0000E94700B80E090E0089581E0089581E031
:1006E00008950C946F030E94A90E2FEF84E39CE001
:1006F000215080409040E1F700C000000C94B715F5
:100700000F931F93CF93DF938C01FC01C081D181A4
:10071000CE010E947E13BE010E94E404EC01B801E8
:100720000E947103882309F441C1B801CE010E94DF
:100730004207882309F43AC1C531FCE5DF0739F5E2
:100740000E943014282FF8018281409100015091BD
:100750000101882379F02A7A91E009F490E09093DE
:100760004E01911102C069E201C065E3CA010E9415
:10077000D2140AC080914E01811102C069E201C009
:1007800065E3CA010E94D4140E94FD130FC1C63153
:100790008CE5D80708F07DC0C130ECE5DE0759F4E0
:1007A000F8018281882309F401C1809102028160ED
:1007B00080930202FBC0C230FCE5DF0708F452C0A0
:1007C000F8018281882309F455C00E9483148111A5
:1007D00002C00E9469140E94961490E09093230234
:1007E00080932202FE01E350FC45E231F10530F432
:1007F000E45BFF4F809122020C94912180912202B0
:10080000816027C0826025C0846023C0806121C0D0
:1008100080621FC080641DC080681BC084608860C7
:1008200018C08E7F16C08D7F14C08B7F12C08F7E44
:1008300010C08F7D0EC08F7B0CC08F770AC08B7F5E
:10084000877F07C087FB222720F991E0922790FB42
:1008500087F980932202809122020E949A140E94BA
:10086000A90EA4C0C115DC4561F081E0809353015D
:1008700080935401C801DF91CF911F910F910C9487
:100880006D03F8018281882309F490C00E947303EC
:100890008DC0CD3CECE5DE0759F5F8018281882357
:1008A00061F0109254010E945B1590935201809365
:1008B000510180E20E94CF0B79C0809154018823BE
:1008C00021F080E20E94D60B71C08091510190917D
:1008D00052010E946715883C910598F780E20E94BA
:1008E000D60B88E20E94610A88E20E94700B5EC00B
:1008F000CE3CFCE5DF0708F044C0CB3C8CE5D807D4
:1009000019F5F8018281882351F0109253010E9459
:100910005B159093500180934F0182E0CBCF809183
:10092000530181110FC080914F01909150010E949D
:100930006715883C910530F486E20E94610A86E2E0
:100940000E94700B82E0BECFCC3CDC4509F08DCF1D
:10095000F80182818111A5CF809154018111B1CF1D
:1009600080915101909152010E946715883C910538
:1009700008F0A7CF87E20E94610A87E20E94700B0D
:10098000A0CFC03DFCE5DF0731F4F8018281882368
:1009900069F080E009C0C13DDC4509F066CFF8018F
:1009A0008281882319F082E00E94A21C80E0DF91FE
:1009B000CF911F910F9108950C9443030C949307CA
:1009C00008950C944903089596E1799FF00111244C
:1009D00094E8899FE00DF11D1124E60FF11DEE0F43
:1009E000FF1FEA5CFE4F859194910895880F991F2F
:1009F000FC01EA5CFE4F859194910895CF93DF93BB
:100A00000E94E4040E94A106EC01811520E59207F2
:100A1000F0F5811530E4930708F018C1883E910580
:100A200000F5803E910508F088C1883A910570F480
:100A3000853A910508F09AC08130910509F47DC18D
:100A400008F434C1049708F078C130C18D3B91059A
:100A500008F497C0803C910508F428C1805C910996
:100A6000E7C08115904258F4C11581E0D80708F01D
:100A700064C1C03FD10508F419C1D0655EC1C1157C
:100A800090E3D90708F0D8C0CE019F70D1C081157E
:100A900025E5920708F043C0811534E5930708F077
:100AA000ECC0811542E5940708F5C11581E5D8072A
:100AB00008F0CFC02C2F237081E090E002C0880F97
:100AC000991F2A95E2F79C689E0174E03695279558
:100AD0007A95E1F72370922BCF70C695C69530E2D8
:100AE000C39FE0011124C82BD92B27C18695869579
:100AF0009E0123703327C115D34508F0AFC040E2F3
:100B0000849FC0011124C1E0D0E002C0CC0FDD1FE2
:100B10002A95E2F78C2B9D2BEC01DC680EC1811528
:100B200029E5920778F4811538E5930708F0AAC003
:100B30008115964508F0BAC0CF71DD27DC2FCC2790
:100B4000D062FBC0C1158AE5D80708F4A0C0CE0169
:100B500090568115904208F0A9C08D2F8F710E9488
:100B60001E07DD27D0628F71D82BE7C0853A91052B
:100B700009F49FC0863A910509F09EC0C2E8D0E40E
:100B8000DCC0883A910509F49AC0893A910509F4C4
:100B900099C08A3A910509F498C08B3A910509F4F5
:100BA00097C08C3A910509F496C08B3B910509F4E6
:100BB00095C08C3B910509F494C08D3A910509F4D8
:100BC00093C0803B910509F492C08E3A910509F4D7
:100BD00091C08F3A910509F490C0813B910509F4C9
:100BE0008FC0823B910509F48EC0833B910509F4C7
:100BF0008DC0843B910509F48CC0853B910509F4B7
:100C00008BC0863B910509F48AC0873B910509F4A6
:100C100089C0883B910509F488C0893B910509F496
:100C200087C08A3B910509F486C0C0E0D4E485C042
:100C30000E94F604EC0181C0CE019927D3FF03C0C6
:100C4000EC01D86C7AC0EC01D06C77C0DF70D06A50
:100C500074C0DC2FCC27C16FD06A6FC040E2849F84
:100C6000C0011124C1E0D0E002C0CC0FDD1F2A95E5
:100C7000E2F7C82BD92BDA6860C0D82FCC27C46F15
:100C8000D06A5BC0D82FCC27C06FD06A56C08C2FDB
:100C90008F70806E90E0906A24E0D695C7952A9573
:100CA000E1F7CF709C013C2BE90147C0C0E0D0E0E8
:100CB00044C0C1E8D0E441C0C3E8D0E43EC0C2EEC5
:100CC000D4E43BC0C9EED4E438C0CAEED4E435C0A5
:100CD000C5EBD4E432C0C6EBD4E42FC0C3EBD4E4FC
:100CE0002CC0C4EBD4E429C0C7EBD4E426C0CCECC0
:100CF000D4E423C0CDECD4E420C0C3E8D5E41DC0C7
:100D0000CAE8D5E41AC0C2E9D5E417C0C4E9D5E4FD
:100D100014C0C1E2D6E411C0C3E2D6E40EC0C4E2FE
:100D2000D6E40BC0C5E2D6E408C0C6E2D6E405C0EE
:100D3000C7E2D6E402C0CAE2D6E4CE01DF91CF9189
:100D400008958238910549F1B0F48133910509F491
:100D500058C048F48932910509F44EC08A32910591
:100D600009F454C008958533910509F440C08933CE
:100D7000910599F00895833E910529F138F4803E5C
:100D8000910591F0823E9105A1F00895863E91056E
:100D9000F9F0873E910531F108952091220220FD5E
:100DA0003AC021FD38C008958091220280FD35C0EF
:100DB00032C08091220282FF32C08091220284FDE3
:100DC00030C083EE39C08091220282FD28C0F5CF69
:100DD0008091220283FF27C08091220284FD21C0DE
:100DE00087EE2AC08091220283FD1DC0F5CF80913D
:100DF000220285FD1AC01BC08091220285FD17C00A
:100E000014C08091220286FD14C015C08091220278
:100E100086FD11C00EC080EE0FC089E30DC082EECA
:100E20000BC080E009C086EE07C089E205C085E3FB
:100E300003C08AE201C081E390E00895909122020C
:100E400092FF0DC0282F2871283019F4877F846005
:100E500006C0282F2471243011F48B7F886093FF03
:100E60000DC0282F2871283119F4877E846106C0AF
:100E7000282F2471243111F48B7E886194FD877EA4
:100E8000089508950F931F93CF93FB0122812111A1
:100E900002C0C1E041C08C01C0916201C11125C0F6
:100EA00086319C45B1F70E94410781E08093620141
:100EB0000E945B159093610180936001109255012F
:100EC0001092570110925601109259011092580138
:100ED00010925B0110925A0110925D0110925C0118
:100EE00010925F0110925E0117C080916001909195
:100EF00061010E946715883C910558F69091550153
:100F0000E92FF0E0EE0FFF1FEA5AFE4F1183008336
:100F10009F5F90935501C0E08C2FCF911F910F914F
:100F20000895089508950C94920785B7806885BF49
:100F300085B7806885BFA9E2B1E041E050E026E0D6
:100F40002A0F8D91E82FE295EF70F0E031A18F70BC
:100F5000BA0102C0660F771F8A95E2F7CB01962F80
:100F60009095932391A392A1892B82A32A13E9CF71
:100F7000A3E1B1E041E050E026E12A0F8D91E82F96
:100F8000E295EF70F0E031A18F70BA0102C0660FF8
:100F9000771F8A95E2F7CB01962F9095932391A323
:100FA00092A1892B82A32A13E9CFEBE7F1E0A3E614
:100FB000B1E011921192119211921D921D921D9207
:100FC0001D9271E0E339F707A1F70C94DC042F922E
:100FD0003F924F925F926F927F928F929F92AF92C9
:100FE000BF92CF92DF92EF92FF920F931F93CF9316
:100FF000DF93CDB7DEB72B970FB6F894DEBF0FBEE9
:10100000CDBF29E231E03E832D8303E611E01A874C
:10101000098766246394712CC12CD12C7601C3946A
:1010200029853A8538872F83D9012D903D904D90A1
:101030005C90F9011082118212821382AD81BE810F
:101040008D91BE83AD83E82FE295EF70F0E091A122
:101050008F70930102C0220F331F8A95E2F73A8303
:101060002983822F892B81A392A120952B879223FC
:1010700092A330EA3A95F1F783E191E09C838B8368
:1010800020E030E0AB81BC819D91BC83AB83A92F74
:10109000A295AF70B0E090967C91A985BA858D90AD
:1010A0009D90AD90BC909F70A30101C0440F9A9594
:1010B000EAF7472369F4D701C601022E04C0880F5E
:1010C000991FAA1FBB1F0A94D2F7AC01BD0103C030
:1010D00040E050E0BA01842A952AA62AB72AA985B9
:1010E000BA858D929D92AD92BC9213972F5F3F4F20
:1010F0002631310539F691A18B85892381A382A1FF
:10110000B9818B2B82A329853A852C5F3F4F3A8783
:101110002987EF81F88580819181A281B38128168A
:1011200039064A065B0649F0F1E0F09393010E940C
:101130005B15909395018093940129853A852B57EF
:10114000314009F06DCF809193018823E1F08091C7
:101150009401909195010E9467150697A0F02BE7E6
:1011600031E0F80181919191A191B1918F01F90143
:1011700081939193A193B1939F01F1E00B371F07E6
:1011800081F7109293010E94DE0481E02B960FB646
:10119000F894DEBF0FBECDBFDF91CF911F910F91AD
:1011A000FF90EF90DF90CF90BF90AF909F908F9087
:1011B0007F906F905F904F903F902F90089524E024
:1011C000829FC0011124FC01E558FE4F60817181AE
:1011D000828193810895089590939B0180939A0151
:1011E0000895E0919A01F0919B01309721F00190D0
:1011F000F081E02D099480E00895E0919A01F0914A
:101200009B01309721F00280F381E02D099408952D
:10121000E0919A01F0919B01309721F00480F581D3
:10122000E02D099408952091980130919901821739
:10123000930771F09093990180939801E0919A013E
:10124000F0919B01309721F00680F781E02D099401
:10125000089520919601309197018217930771F0BC
:101260009093970180939601E0919A01F0919B01F0
:10127000309721F00084F185E02D099408950895B8
:101280000C943F0981E008950E9452150E94950731
:101290000C94DB154F925F926F927F929F92AF9268
:1012A000BF92CF92DF92EF92FF920F931F93CF9353
:1012B000DF93CDB7DEB72E970FB6F894DEBF0FBE23
:1012C000CDBF0E94E7070E944209811111C08FEF34
:1012D00089838A831B820E945B158160782F9D839E
:1012E0008C8349815A816B818D810E942D0A7CC03B
:1012F0004DE9A42E41E0B42E00E010E0902E802FA6
:101300000E94DF08F501C190D190E190F1905F015A
:10131000C626D726E826F926C114D104E104F10433
:1013200031F40F5F1F4F0630110541F7D0CF2091E8
:10133000020221FF0AC06B877C878D879E870E94EF
:10134000EB089E858D857C856B8540E050E026010D
:101350003701042E04C076946794579447940A94F6
:10136000D2F740FE3AC04E839F82C12CD12C760129
:10137000C39404C0CC0CDD1CEE1CFF1C4A95D2F7B4
:1013800026013701462257226822792281E045282A
:101390004628472809F480E088870E945B15816011
:1013A000782F9A8789874E815F8168858A850E9418
:1013B0002D0A000F111F000F111FF801E356FE4FF9
:1013C00080819181A281B381C826D926EA26FB2695
:1013D000C082D182E282F38207C04F5F5F4F463105
:1013E000510509F0B4CF9DCF0E946E1710919C015A
:1013F0000E94F1081817D9F00E94F10880939C010F
:101400002E960FB6F894DEBF0FBECDBFDF91CF9101
:101410001F910F91FF90EF90DF90CF90BF90AF9012
:101420009F907F906F905F904F900C94E1042E9668
:101430000FB6F894DEBF0FBECDBFDF91CF911F91E5
:101440000F91FF90EF90DF90CF90BF90AF909F9063
:101450007F906F905F904F900895CF93DF93CDB7BB
:10146000DEB72B970FB6F894DEBF0FBECDBF4F830C
:10147000588769877A878B87DE01119686E0FD01A0
:1014800011928A95E9F785E0FE01379601900D9259
:101490008A95E1F749815A816B817C818D819E819A
:1014A0000E9450112B960FB6F894DEBF0FBECDBF31
:1014B000DF91CF910895FC01808191810E94BD133D
:1014C0000895CF93DF931F92CDB7DEB7882309F439
:1014D00003C1682F8238C1F40E94F10881FDFCC06D
:1014E00069E380910001909101010E94D2140E9451
:1014F000FD132FEF81EE94E0215080409040E1F702
:1015000000C0000069E319C0833811F50E94F1089A
:1015100080FDE2C063E580910001909101010E948D
:10152000D2140E94FD132FEF81EE94E021508040F1
:101530009040E1F700C0000063E5809100019091C8
:1015400001010E94D4140F90DF91CF910C94FD13F0
:101550008438C1F40E94F10882FDBEC067E4809126
:101560000001909101010E94D2140E94FD132FEFFF
:1015700081EE94E0215080409040E1F700C00000EF
:1015800067E4DBCF8CEF860F813A70F4862F698396
:101590000E948419698181119FC0809100019091FE
:1015A00001010E94D214CFCF80E2860F883048F428
:1015B000677081E001C0880F6A95EAF70E943314D2
:1015C000C2CF8BE5860F833088F4653A29F0663AFE
:1015D00031F083E890E005C081E890E002C082E845
:1015E00090E00F90DF91CF910C94130988E5860F5E
:1015F000853108F071C0683A61F1693A69F16A3A77
:1016000071F16B3A79F16C3A81F16B3B89F16C3B8A
:1016100091F16D3A99F1603BA1F16E3AA9F16F3AFF
:10162000B1F1613BB9F1623BC1F1633BC9F1643B8C
:10163000D1F1653BD9F1663BE1F1673BE9F1683BEC
:10164000F1F1693BF9F16A3B09F43FC080E090E0B9
:101650003EC082EE90E03BC089EE90E038C08AEE5A
:1016600090E035C085EB90E032C086EB90E02FC073
:1016700083EB90E02CC084EB90E029C087EB90E0F6
:1016800026C08CEC90E023C08DEC90E020C083E875
:1016900091E01DC08AE891E01AC082E991E017C08C
:1016A00084E991E014C081E292E011C083E292E00B
:1016B0000EC084E292E00BC085E292E008C086E2B0
:1016C00092E005C087E292E002C08AE292E00F90C9
:1016D000DF91CF910C9429090F90DF91CF9108955C
:1016E000882309F45BC0682F823879F40E94F108DE
:1016F00081FF54C069E380910001909101010E9433
:10170000D2140E94FD1369E310C08338B1F40E9423
:10171000F10880FF43C063E58091000190910101D1
:101720000E94D2140E94FD1363E580910001909104
:1017300001010E94D4140C94FD13843879F40E94A2
:10174000F10882FF2BC067E48091000190910101B4
:101750000E94D2140E94FD1367E4E7CF8CEF860F3E
:10176000813A18F380E2860F883048F4677081E090
:1017700001C0880F6A95EAF70E943914DCCF8BE527
:10178000860F833020F480E090E00C941309685AAF
:10179000653120F480E090E00C94290908958823B5
:1017A00021F00E9433140C94FD130895882321F036
:1017B0000E9439140C94FD1308954F925F926F921A
:1017C0007F92AF92BF92CF92DF92EF92FF920F93F0
:1017D0001F93CF93DF931F92CDB7DEB77C01A72E67
:1017E000FC01058102950F701281112321F069839C
:1017F0000E945014698169830E94F61369818823CD
:1018000081F0112371F080E2860F883050F082E081
:101810000E94DF130E94F61391E0B82EB926698169
:1018200001C0B12CCA2CC2948FE0C822D12CF60181
:10183000E25AFF4F0C9491218A2D807F0A2D0F7060
:10184000882311F00295007F1123C1F0002309F4D1
:10185000DCC180E2860F883010F0611105C0802F56
:1018600069830E94331404C0802F69830E9443144B
:10187000698169830E94FD136981C7C1862F6983CD
:101880000E94700B6981002309F4E2C180E2860F97
:10189000883010F0611104C0802F0E94391403C0F9
:1018A000802F0E9449140E94FD13D2C18A2D807F8F
:1018B0009A2D9F70803211F4892F03C0892F829551
:1018C000807F662319F06130B1F01FC0112349F009
:1018D000002309F452C1013009F04FC10E94631482
:1018E000B7C1002319F0013009F4B2C189830E9405
:1018F0006614898148C1112321F0063008F0A8C17F
:101900003CC1053008F0A4C13EC1112351F00023B1
:1019100009F433C1F701958190FF77C19F709583DA
:101920002CC1002309F42FC181C18A2D869586958B
:10193000837090E0009719F0019761F089C111233D
:1019400021F0862F9A2D937002C080E090E00E94D3
:1019500013098EC1112321F0862F9A2D937002C096
:1019600080E090E00E94290983C11123F9F0653FCE
:1019700051F0663F71F0643FA9F480911C02909190
:101980001D0281600BC080911C0290911D0282603B
:1019900005C080911C0290911D02846090931D02ED
:1019A00080931C02862F0E9476161EC0653F51F060
:1019B000663F71F0643FA9F480911C0290911D0272
:1019C0008E7F0BC080911C0290911D028D7F05C0FF
:1019D00080911C0290911D028B7F90931D02809339
:1019E0001C02862F0E94DE160E94631741C18A2DB9
:1019F000837009F052C0111137C1862F82958695E8
:101A00008770880F880F962F9F70492E512C612C5C
:101A1000712C082E04C0440C551C661C771C0A94BB
:101A2000D2F764FF14C00FE010E020E030E0B9010D
:101A3000A80104C0440F551F661F771F8A95D2F76F
:101A4000CB01BA01609570958095909503C060E0D8
:101A500070E0CB012A2D26952695237030E02230A8
:101A6000310569F02330310589F06429752986290B
:101A700097292130310571F00E949312F5C0642935
:101A80007529862997290E94A512EEC00E949312FB
:101A9000C301B2010E948112E7C0112319F08A2DFF
:101AA000817001C08695882309F4DEC0862F829557
:101AB00086958770880F880F962F9F70492E512C1E
:101AC000612C712C082E04C0440C551C661C771C1C
:101AD0000A94D2F764FF14C00FE010E020E030E079
:101AE000B901A80104C0440F551F661F771F8A95CE
:101AF000D2F7CB01BA01609570958095909503C09F
:101B000060E070E0CB012A2D269526952370422FA8
:101B100050E04230510569F04330510589F06429A5
:101B20007529862997294130510571F00E94591372
:101B30009BC064297529862997290E946B1394C03C
:101B40000E945913C301B2010E9447138DC0862F12
:101B500090E0FC01E05EF109E531F10508F051C0CB
:101B6000E259FF4F0C949121062F0F708A2D8F712F
:101B7000112331F00E94E012802F0E94CF0B68C029
:101B80000E940113802F0E94D60B62C0112341F0E6
:101B9000053008F05DC08A2D8F710E94261358C051
:101BA000063008F055C0F7CF112339F08A2D8F7118
:101BB0000E94E0124DC01123C9F38A2D8F710E943B
:101BC000011346C0112329F08A2D8F710E94CB1278
:101BD0003FC00E94C6123CC0112351F01A2D1F7144
:101BE000812F0E94E01263E0812F0E94D61330C043
:101BF00081E00E94DF13023058F182E00E94DF137F
:101C000027C0112331F0002389F2862F0E94610A38
:101C10001FC0002391F2693349F45FEF77EE83E050
:101C2000515070408040E1F700C00000862F0E94B4
:101C3000700B0EC04A2D4F70C7010E945D030E94B9
:101C4000F41116C04A2D4F70C7010E94E30410C062
:101C500098E0C916D10441F05CF0FAE0CF1AD1083F
:101C600022E0C216D10420F40E94F1080E94E1048F
:101C7000BB2001F10E94D21380FD1CC0F70112822B
:101C80000E94CC130E94E012C7010E946A0E0E94BB
:101C9000CC130F90DF91CF911F910F91FF90EF9098
:101CA000DF90CF90BF90AF907F906F905F904F90FC
:101CB0000C9401130F90DF91CF911F910F91FF9022
:101CC000EF90DF90CF90BF90AF907F906F905F903C
:101CD0004F9008950F931F93CF93DF93EC0188816A
:101CE00099812B813C81232BB9F09F3F11F48F3FC9
:101CF00099F0CE010E948003882371F06881798178
:101D00008A810E94C8138C010E947D130E947E125A
:101D1000B801CE010E94DD0BDF91CF911F910F9191
:101D200008950E9450140E946014809100019091C7
:101D300001010E94D6140E94FD130E94FC170E940C
:101D4000631780E090E00E94130980E090E00C941B
:101D500029090E9440140C94910E0E94BD13E92F92
:101D6000E295EF70F0E03297EE30F105B0F4ED5708
:101D7000FF4F0C949121803F91F018F4803E68F45D
:101D80000EC0843F51F40BC0803E48F0813F29F4DF
:101D900006C093FB882780F9089580E0089581E0CC
:101DA0000895CF93DF9300D000D01F92CDB7DEB758
:101DB0000F900F900F900F900F90DF91CF9108959B
:101DC000CF93DF9300D000D000D0CDB7DEB72696FA
:101DD0000FB6F894DEBF0FBECDBFDF91CF9108954F
:101DE0001F93CF93DF93C091B50116E08091B601A8
:101DF000C81799F0D0E01C9FF0011D9FF00D112431
:101E0000E954FE4F408151816281738184819581C3
:101E10000E94E00E2196C770E9CFDF91CF911F910C
:101E200008954091E7015091E8016091E9017091B6
:101E3000EA018091EB019091EC010C94E00E80910D
:101E4000EC0182958F7009F054C08091E9018823DC
:101E500009F44FC08091B501A091B6016091E701EE
:101E60007091E8014091EA015091EB01B6E08A17C8
:101E700009F43FC090E041155105C1F17F3F11F4D5
:101E80006F3FA1F1B89FF001B99FF00D1124E95403
:101E9000FE4F218172132AC02081621327C0228144
:101EA000211124C0238134812417350710F42150D7
:101EB0003109241B350B283C3105C0F42091EC017D
:101EC0002F7020612093EC0126E0289FF001299FCC
:101ED000F00D1124E454FE4F80818F708061808367
:101EE00087EE91E00E946A0E0C94F00E01968770C6
:101EF000BECF0895CF92DF92EF92FF920F931F9380
:101F0000CF93DF93CDB7DEB762970FB6F894DEBFFD
:101F10000FBECDBF8C0185E0F801DE011D9601905A
:101F20000D928A95E1F7D8014C9111965C91119729
:101F300012966C9112971396CD90DC901497309175
:101F4000E7017091E8018091EA019091EB0100971F
:101F500009F46BC17F3F19F43F3F09F466C1E0907B
:101F6000E901EE2009F4C0C02091EC01C816D906A1
:101F700028F0F601E81BF90BCF0104C0809590957D
:101F80008C0D9D1DFF24F394883C910578F0F12C75
:101F9000207F09F0C6C07C2DD98AC88A89890E9411
:101FA000D10E87EE91E00E946A0EB1C0822F807F31
:101FB00009F046C0751314C0341312C0611110C06B
:101FC0002F7020612093EC010E94110F87EE91E0A9
:101FD0000E946A0E8091EC01D80115968C932EC058
:101FE000CD2819F15F3F11F44F3FF9F0F62E611142
:101FF0001CC08091B5012091B60136E0821709F42A
:102000005AC090E0389FF001399FF00D1124E95437
:10201000FE4F7181571306C07081471303C0728150
:10202000711103C001968770E9CFF62E662309F47B
:1020300027C18091EC0181608093EC01F12C20C1DB
:10204000751308C0341306C0611104C08091EC01FF
:10205000D801C3C04D875E878D859E856A8B0E949F
:10206000AD0E6A898823E1F16623D1F12091EC015C
:10207000822F82958F7090E0029774F08091E70133
:102080009091E80198878F831986DB86CA862C8712
:10209000CE0107960E946A0E86E0F801A7EEB1E035
:1020A00001900D928A95E1F70E941F0F0E94110F77
:1020B000FF24F394E5C04D875E878D859E850E9441
:1020C000BD13292F22952F7030E0223031050CF0FE
:1020D000CBC09F7009F0C5C0805E883008F4D0C0C6
:1020E000C8010E946A0EE4CFC816D90608F453C08E
:1020F000F601E81BF90BCF01883C910508F450C0AC
:10210000F12C7C2DD98AC88A89890E94D10EE7EEEC
:10211000F1E086E0DF011D928A95E9F70E94110F38
:10212000AFC0751314C0341312C0611110C0809178
:10213000EC01F8018583C8010E946A0E86E0E7EE93
:10214000F1E0DF011D928A95E9F7FE2C99C04D87D9
:102150005E878D859E856A8B0E94AD0E6A89882375
:1021600009F4BECF662309F4BBCF2091EC01822F86
:1021700082958F7090E002970CF48ECF8091E701EA
:102180009091E8019A8389831B82DD82CC822E8321
:10219000CE0101967FCF809590958C0D9D1DACCF83
:1021A000F62E662309F49CCF75132EC034132CC071
:1021B0002091EC0120FD1FC0822F82958F70D9F0F5
:1021C000D80115962C9315978F3049F08F5F982F73
:1021D0009295907F822F8F70892B15968C93C801D2
:1021E0000E946A0E86E0F801A7EEB1E001900D9220
:1021F0008A95E1F793CF86E0F801A7EEB1E0019070
:102200000D928A95E1F73CC04D875E878D859E854E
:102210000E94AD0E811140CF8091EC0181608093CE
:10222000EC01C8010E946A0E2BC0662309F458CF46
:102230004D875E878D859E850E94AD0EF82E882382
:1022400009F44ECF86E0F801A7EEB1E001900D92BF
:102250008A95E1F787EE91E00E945B0A0E941F0FCA
:102260005DCF811139CF0CC0243031050CF038CF4F
:102270009F7009F431CFF8019581907F09F02CCF40
:102280008F2D62960FB6F894DEBF0FBECDBFDF91E3
:10229000CF911F910F91FF90EF90DF90CF90089515
:1022A0001F93CF93DF93CDB7DEB72C970FB6F8947B
:1022B000DEBF0FBECDBF4F83588769877A878B8774
:1022C0009C87CE0107960E947A0F882369F08F8140
:1022D00098852A853B85232BF1F19F3F09F063C048
:1022E0008F3F09F060C037C086E0FE013796DE01FF
:1022F000119601900D928A95E1F76F817885EA85B4
:10230000FB85309741F17F3F11F46F3F21F1209120
:10231000B60130E0C9010196877099274091B50157
:1023200050E08417950709F447C069837A83FD83D9
:10233000EC8396E0929FD001939FB00D1124A95495
:10234000BE4FFE01319601900D929A95E1F7809370
:10235000B6010E94F00E16E08091B5019091B60191
:102360008917C1F1189FC001112489549E4F0E9402
:102370007A0F882379F1E091B5011E9FF0011124B5
:10238000E954FE4F4081518162817381848195813E
:102390000E94E00E8091B50190E001968770992728
:1023A0008093B501D9CF4F81588569857A858B8512
:1023B0009C850E94E00ECFCF0E94A90E1092B6011C
:1023C0001092B501E7EEF1E086E0DF011D928A95FB
:1023D000E9F7C1CF2C960FB6F894DEBF0FBECDBF84
:1023E000DF91CF911F910895EF92FF920F931F936A
:1023F000CF93DF938C01892B09F46CC0F12CEE2470
:10240000E394E8012196F8018491843740F4843004
:1024100008F051C0813081F0823019F15BC08537FE
:1024200009F444C0A8F19CE7980F903708F052C017
:102430008F770E94700B41C00E5F1F4FFE01C49149
:1024400080E28C0F883048F4C7708E2D01C0880F51
:10245000CA95EAF70E94531414C08C2F0E94610A97
:102460002DC00E5F1F4FFE01C49180E28C0F88309B
:1024700058F4C7708E2D01C0880FCA95EAF70E94E4
:1024800059140E94FD131AC08C2F0E94700B16C0A5
:102490000E5F1F4FFE01C491CC2381F08FE99FE0B6
:1024A0000197F1F700C00000C150F6CF0E5F1F4F3B
:1024B000FE01F49003C00E94610A8E018F2D8823D3
:1024C00009F49FCFEFE9FFE03197F1F700C000007A
:1024D0008150F5CFDF91CF911F910F91FF90EF9039
:1024E000089508950E9471126093F1017093F201B2
:1024F0008093F3019093F4010C94910E08950C9441
:1025000072120F931F930091F1011091F20120912B
:10251000F3013091F401602B712B822B932B1F91CF
:102520000F910C9472120F931F930091F10110916F
:10253000F2012091F3013091F40160237123822391
:1025400093231F910F910C9472120F931F9300917C
:10255000F1011091F2012091F3013091F401602713
:102560007127822793271F910F910C94721208955F
:102570000C94B7120E94B8126093ED017093EE01B3
:102580008093EF019093F0010C94910E60E070E065
:10259000CB010C94BA120F931F9341E050E060E01E
:1025A00070E08A019B0104C0000F111F221F331F1E
:1025B0008A95D2F7C901B8011F910F910C94BA12F4
:1025C0000F931F9341E050E060E070E004C0440FBF
:1025D000551F661F771F8A95D2F78091ED01909164
:1025E000EE01A091EF01B091F0018A019B01082B4F
:1025F000192B2A2B3B2BC901B8011F910F910C9469
:10260000BA120F931F9341E050E060E070E004C005
:10261000440F551F661F771F8A95D2F74095509536
:10262000609570958091ED019091EE01A091EF0180
:10263000B091F0018A019B01082319232A233B232F
:10264000C901B8011F910F910C94BA120F931F93F7
:1026500041E050E060E070E004C0440F551F661F89
:10266000771F8A95D2F78091ED019091EE01A091AC
:10267000EF01B091F0018A019B01082719272A2751
:102680003B27C901B8011F910F910C94BA120F9307
:102690001F930091ED011091EE012091EF01309117
:1026A000F001602B712B822B932B1F910F910C94B7
:1026B000BA120F931F930091ED011091EE0120913A
:1026C000EF013091F00160237123822393231F9146
:1026D0000F910C94BA120F931F930091ED0110917A
:1026E000EE012091EF013091F001602771278227E0
:1026F00093271F910F910C94BA120895CF92DF92F5
:10270000EF92FF920F931F93CF93DF938C01C090B2
:10271000F101D090F201E090F301F090F40180918A
:10272000ED019091EE01A091EF01B091F001C82A66
:10273000D92AEA2AFB2ACFE1D0E0D701C6010C2E24
:1027400004C0B695A795979587950A94D2F780FF10
:1027500006C0B8018C2F0E94FE04019721F4219736
:1027600060F780E001C08C2FDF91CF911F910F9116
:10277000FF90EF90DF90CF900895CF93DF93EC011F
:102780000E947E13BE010E94FE04DF91CF91089546
:10279000CB010E94BD1308958091F5018595859523
:1027A000859508958091F5018770089598E0899F37
:1027B00090011124262B2093F5010C94E012209116
:1027C000F501809582238093F501982F977069F425
:1027D00030E0482F082E000C550B2417350729F040
:1027E0008595859585950C94011308959091F50133
:1027F000977081E009F480E00895E0910001F09184
:102800000101809101028083E0910001F0910101BA
:10281000908180910002892B8083E0910001F091EA
:10282000010190818091FF01892B80838091F601C5
:10283000882381F0E0910001F09101019081892BC2
:10284000808380910001909101010E949F14811169
:102850001092F60180910001909101010C94FD0805
:1028600080910102089590910102892B80930102C9
:102870000895809590910102892380930102089523
:1028800010920102089590910002892B809300021A
:102890000895809590910002892380930002089505
:1028A0001092000208959091FF01892B8093FF01FF
:1028B000089580959091FF0189238093FF010895E9
:1028C0001092FF0108958093F60108951092F60189
:1028D00008956DEE7EEF80E090E00E94CE2160E0F2
:1028E00082E090E00E94BC2160E083E090E00E94E2
:1028F000BC2160E084E090E00E94BC2160E085E0C3
:1029000090E00C94BC2180E090E00E94B62121E090
:102910008D3E9E4F09F020E0822F089582E090E0E6
:102920000C94AE2183E090E00C94AE2184E090E022
:102930000C94AE21682F84E090E00C94BC21FC0143
:1029400031969C01285F3F4F80E0919191118F5FFC
:10295000E217F307D1F708959C01FC0132969FEF2F
:1029600080E04191461789F09F3F19F4411101C061
:10297000982F8F5F8630A9F79F3F39F0F901E90F53
:10298000F11D97FDFA95628308950895FC01329632
:1029900008962081261301C010823196E817F907A6
:1029A000C1F708950C94AC140C94C614FC01319634
:1029B00008961192E817F907E1F708958091280227
:1029C000843039F11092030220E488E190E00FB6E0
:1029D000F894A895809360000FBE2093600080E07B
:1029E0000E94E10483B7817F846083BF83B78160E5
:1029F00083BF7894889583B78E7F83BF0FB6F89492
:102A0000A8958091600088618093600010926000BA
:102A10000FBE089508950895CF930E940A150E944D
:102A2000E7070E940B15C0E08C2F0E94DF08672B80
:102A3000682B692B29F4CF5FC630B1F780E001C065
:102A400081E0CF9108950E94A90E0E94F1080C9494
:102A5000E1041F920F920FB60F9211248F939F9350
:102A6000AF93BF9380910302811113C080911E0226
:102A700090911F02A0912002B09121024196A11DC8
:102A8000B11D80931E0290931F02A0932002B09369
:102A90002102BF91AF919F918F910F900FBE0F9028
:102AA0001F90189582E084BD93E095BD9AEF97BD85
:102AB00080936E0008952FB7F89480911E02909134
:102AC0001F02A0912002B09121022FBF0895CF9242
:102AD000DF92EF92FF920F931F932FB7F8944091DC
:102AE0001E0250911F0260912002709121022FBF9F
:102AF0006A017B01EE24FF248C0120E030E0C01647
:102B0000D106E206F30610F4415051099A01281B40
:102B1000390BC9011F910F91FF90EF90DF90CF907B
:102B2000089578941F920F920FB60F9211248F93ED
:102B30009F93AF93BF9380911E0290911F02A0912B
:102B40002002B09121020196A11DB11D80931E02A9
:102B500090931F02A0932002B0932102BF91AF91E6
:102B60009F918F910F900FBE0F901F90189581E04D
:102B70008093E00080E28093D8001092C9008FE13A
:102B80009EE40197F1F700C0000087E090EBDC01C4
:102B90008093310290933202A0933302B0933402B7
:102BA0009CE088E10FB6F894A895809360000FBE72
:102BB00090936000FFCF0E948314811102C00E9495
:102BC00069140E948E14809302020E94961490E071
:102BD00090932302809322020E949214682F70E047
:102BE00080E090E00C947F128091060280FF0BC081
:102BF0006091050185E0689FB00111247595679586
:102C0000759567952BC081FF09C06091050185E02E
:102C1000689FB00111247595679520C082FF07C099
:102C20006091050185E0689FB001112417C0909163
:102C300007029923D1F060910401961788F720913B
:102C4000050185E0289F90011124929FA001939F88
:102C5000500D112470E0CA010E947D216038710579
:102C600040F46115710539F002C065E070E0862F0F
:102C700008958FE7089581E008958091060280FF0E
:102C800008C06091030170E075956795759567952B
:102C900021C081FF06C06091030170E075956795C2
:102CA00019C082FF04C06091030170E010C09091D0
:102CB00007029923C1F0609102019617A0F7809155
:102CC0000301899FC001112470E00E947D216038BA
:102CD000710528F46115710521F0862F08958FE79D
:102CE000089581E0089561E070E0F4CF803F21F421
:102CF0000E94F415819504C0813F29F40E94F415C7
:102D000080930A020895823F21F40E94F415819570
:102D100004C0833F29F40E94F415809309020895AA
:102D2000893F19F40E943D1605C08A3F31F40E9484
:102D30003D16819580930B0208958B3F21F40E94EC
:102D40003D16819504C08C3F29F40E943D16809366
:102D50000C020895843F21F480910802816017C01D
:102D6000853F21F480910802826011C0863F21F4E2
:102D70008091080284600BC0873F21F48091080293
:102D8000886005C0883F31F480910802806180939B
:102D9000080208958D3F21F48091060281600BC0E6
:102DA0008E3F21F480910602826005C08F3F29F496
:102DB000809106028460809306020895803F39F472
:102DC00080910A0287FF6CC010920A0269C0813F9D
:102DD00029F480910A021816BCF362C0909109028E
:102DE000823F29F497FF5CC01092090259C0833FCB
:102DF00019F41916CCF354C0893F41F480910B02A9
:102E000018160CF04DC010920B024AC08A3F29F4EC
:102E100080910B0287FF44C0F6CF8B3F39F480913D
:102E20000C0287FF3DC010920C023AC08C3F29F47F
:102E300080910C021816BCF333C0843F21F48091BA
:102E400008028E7F17C0853F21F4809108028D7F94
:102E500011C0863F21F4809108028B7F0BC0873F11
:102E600021F480910802877F05C0883F31F480916A
:102E700008028F7E8093080213C08D3F21F4809159
:102E800006028E7F0BC08E3F21F4809106028D7F5B
:102E900005C08F3F29F4809106028B7F8093060244
:102EA0008091090281110EC080910A0281110AC02D
:102EB00080910B02811106C080910C02811102C029
:102EC00010920702089588E092E00E9408090E948B
:102ED0005B15909305028093040208951F93CF938E
:102EE000DF9380910402909105020E946715AC0166
:102EF00090910702992321F02091060130E006C04D
:102F0000209107018AE0289F90011124421753075E
:102F100008F46EC080910902C0910A02D0910B02A0
:102F200010910C02811107C0C1115EC0D1115CC0AB
:102F300011115AC05DC09F3F19F09F5F9093070227
:102F4000181624F40E94F415809309028091090256
:102F500087FF05C00E94F4158195809309021C1615
:102F600024F40E94F41580930A0280910A0287FFDC
:102F700005C00E94F415819580930A0240910902D0
:102F8000442379F030910A02332359F025EB4203B0
:102F9000A0011124509309023203C001112490931F
:102FA0000A021D1624F40E943D1680930B028091A4
:102FB0000B0287FF05C00E943D16819580930B028E
:102FC000111624F40E943D1680930C0280910C028D
:102FD00087FF05C00E943D16819580930C02DF910A
:102FE000CF911F910C9463179F3F09F0A6CFAECFEE
:102FF000DF91CF911F910895E8E0F2E085E0DF01D5
:103000001D928A95E9F71092070210920602089520
:10301000833081F128F4813059F08230D1F0089565
:10302000853009F449C0B8F1863009F456C00895D6
:1030300080910701262F30E0280F311D2F3F3105E9
:1030400024F4680F6093070108958FEF80930701C0
:10305000089580910601262F30E0280F311D2F3F63
:10306000310524F4680F6093060108958FEF809373
:103070000601089580910501262F30E0280F311DAB
:103080002F3F310524F4680F6093050108958FEFF9
:1030900080930501089580910401262F30E0280FC8
:1030A000311D2F3F310524F4680F6093040108950A
:1030B0008FEF80930401089580910301262F30E063
:1030C000280F311D2F3F310524F4680F6093030151
:1030D00008958FEF80930301089580910201262FB8
:1030E00030E0280F311D2F3F310524F4680F609325
:1030F000020108958FEF809302010895833011F14A
:1031000028F4813049F0823091F00895853081F1C2
:1031100020F18630C1F1089580910701681720F4ED
:10312000861B8093070108951092070108958091EE
:103130000601681720F4861B8093060108951092FB
:103140000601089580910501681720F4861B80937D
:1031500005010895109205010895809104016817F2
:1031600020F4861B809304010895109204010895B1
:1031700080910301681720F4861B80930301089552
:1031800010920301089580910201681720F4861BB4
:103190008093020108951092020108950F931F93E6
:1031A0008732D8F58E3108F081C08E3009F46BC0BB
:1031B00098F4873009F459C08B3009F48BC08630FD
:1031C00009F08FC080910202817F8E7F809302027E
:1031D00081E080930E0286C0863109F47BC068F4DA
:1031E000803109F07EC08091020283FB222720F902
:1031F00091E0922790FB83F94FC0893109F46AC0AE
:103200008B3109F06EC08091020281FB222720F9E8
:1032100091E0922790FB81F93FC0883309F45AC0AE
:1032200050F4893209F458C0853309F455C0873207
:1032300009F452C056C0833409F44EC028F48A33CE
:1032400008F44FC0895333C0883409F04AC00E9443
:10325000A90E0FEF13ED20E3015010402040E1F7DD
:1032600000C000000E94B71535C080910202982F5F
:103270009095917090FB80F98093020291112AC081
:10328000897F877F10C08091020282FB222720F96C
:1032900091E0922790FB82F9809302029923D1F06A
:1032A0008091020281608093020214C08D5141E03E
:1032B00050E060E070E08A019B0104C0000F111F24
:1032C000221F331F8A95D2F7C901B8010E947F12CD
:1032D0000E94A90E81E006C061E070E080E090E00D
:1032E000F5CF80E01F910F91089580E0089580E070
:1032F00008958E518A3030F4E82FF0E0E15DFE4F02
:103300008081089580E00895CF93C82F80910E02A8
:10331000813069F018F08230C9F183C0E09100017A
:10332000F09101018081823209F07DC007C0E091F7
:103330000001F09101018081823261F48C2F0E94A2
:103340007519811104C08C2F0E94CE181DC081E018
:1033500090E01AC08C2F0E947719811114C0C431DB
:1033600079F048F4CB3079F0C03109F060C082E0E8
:1033700080930E0208C0C93219F0C83321F057C03B
:1033800010920E0254C081E0817053C0C93289F19D
:1033900018F5C43171F1B0F4C73009F046C08EE1C0
:1033A0008093070182E3809306018AE08093050100
:1033B00084E18093040188E08093030188E2809394
:1033C000020133C082EE8C0F863078F58C2F0E947C
:1033D000791980930D0229C0CE34E9F020F4CB3462
:1033E00021F56AE013C0C13579F0C235F1F461E02E
:1033F0000DC080910D02882319F010920D0215C0A6
:1034000081E080930E0215C061E006C080910D023C
:103410000E9408180AC06AE080910D020E947E187E
:1034200004C010920E0280E004C081E002C080E07F
:10343000ABCFCF9108958091190208950F931F93F8
:10344000CF93DF9300D01F92CDB7DEB78C010E94DF
:10345000B21C823011F0843019F593E099831B83FC
:103460000A839093E9008FEF9091E800815095FDD9
:1034700006C095ED9A95F1F700008111F5CF809186
:10348000E80085FF0DC040E050E063E070E0CE0151
:1034900001960E94CF1C8091E8008E778093E8000F
:1034A0000F900F900F90DF91CF911F910F91089582
:1034B000CF93DF9300D01F92CDB7DEB720912802C3
:1034C000243031F522E02983805891099B838A8337
:1034D00083E08093E9008FEF9091E800815095FDA3
:1034E00006C095ED9A95F1F700008111F5CF809116
:1034F000E80085FF0DC040E050E063E070E0CE01E1
:1035000001960E94CF1C8091E8008E778093E8009E
:103510000F900F900F90DF91CF910895CF93DF938D
:10352000EC010E94B21C823011F08430F9F482E088
:103530008093E9009FEF8091E800915085FD06C0DF
:1035400085ED8A95F1F700009111F5CF8091E800A3
:1035500085FF0CC040E050E065E070E0CE010E94C5
:10356000CF1C8091E8008E778093E800DF91CF91A7
:103570000895CF93DF93EC010E94B21C823011F0CA
:10358000843039F581E08093E9009FEF8091E80075
:10359000915085FD06C085ED8A95F1F700009111E7
:1035A000F5CF8091E80085FF14C040E050E068E06E
:1035B00070E0CE010E94CF1C9091E8009E7790931E
:1035C000E80098E0FE01A1E1B2E001900D929A9529
:1035D000E1F7DF91CF91089580912702811109C011
:1035E0000E94601E0E94C21E8091E200846080934F
:1035F000E2000895109227020895089508950C940A
:10360000231520910F022F5F822F62E30E94712108
:10361000992319F020930F02089510920F028091C0
:103620001002882371F180912802843041F5809145
:10363000E9008F702091EC00922F917020FD90E8AE
:10364000892B94E09093E9009091EB0090FF14C0D7
:103650009091EE0097FF10C09091E80095FF03C095
:103660001092F100F9CF9091E80090FF05C0909181
:10367000E8009E779093E8008F708093E9001092A5
:103680001002089542E061EC81E00E94DA1D42E000
:1036900061EC82E00E94DA1D42E061EC83E00E946E
:1036A000DA1D42E261EC84E00C94DA1D80912A027A
:1036B000833009F453C030F4813071F0823009F462
:1036C0008CC008958A3009F478C08B3009F45EC04C
:1036D000893009F09AC020C080912902813A09F00E
:1036E00094C08091E800877F8093E80080912D024C
:1036F00090912E02892B21F468E081E192E003C0D1
:1037000060E080E090E070E00E941A1D8091E80087
:103710008B778093E800089580912902813209F027
:1037200074C080912D0290912E02892B09F06DC0FA
:103730008091E800877F8093E8008091E80082FD17
:1037400005C0809128028111F8CF5FC08091F100FF
:10375000809319028091E8008B7753C080912902F1
:10376000813A09F052C080912D0290912E02892B4E
:1037700009F04BC08091E800877F8093E80080913A
:10378000E80080FFFCCF8091120136C080912902B1
:103790008132D9F580912D0290912E02892BA9F5C5
:1037A0008091E800877F8093E8000E940F1E80913F
:1037B0002B02809312010C94A90E80912902813270
:1037C00021F58091E800877F8093E8000E940F1E1A
:1037D00080912C0280931A02089580912902813AE7
:1037E000A1F48091E800877F8093E8008091E80051
:1037F00080FFFCCF80911A028093F1008091E80055
:103800008E778093E8000C940F1E089584B7877F0D
:1038100084BF0FB6F894A89580916000886180936A
:103820006000109260000FBE80E8809361001092EB
:1038300061000E9440090E94601E0E94C21E809189
:10384000E20084608093E20078940E9456210E94F6
:10385000440988E091E00E94EC08809128028530BC
:1038600069F40E94DE14809126028823B1F30E943D
:103870000C15882391F30E94B91CEFCF0E944A09CE
:10388000ECCF0C94431C292F332723303105C9F08A
:1038900064F42130310581F02230310509F049C04E
:1038A00084E790E024E834E048C02132310521F17A
:1038B0002232310571F13DC082E190E028EF34E021
:1038C0003CC099278130910571F02CF4892B89F542
:1038D000E0E8F4E00DC08230910541F0039749F52E
:1038E000EEE4F4E005C0EAE6F4E002C0E4E5F4E06A
:1038F000849190E09F0121C064307105D0F4660F7F
:10390000771FFB01EB5BFE4F2081318189E090E066
:1039100014C06430710568F4FB01EE0FFF1FE35C17
:10392000FE4F20813181FB01E75CFE4F808190E0FA
:1039300004C080E090E020E030E0FA013183208391
:1039400008950895CF93C82F0E94A11CC0931B0215
:10395000CF91089580912802843011F081E008957C
:1039600082E0089580911B02811102C00C94AA1C70
:10397000089584E189BD86E189BD09B400FEFDCFCB
:103980008091D8008F7D8093D8008091E000826084
:103990008093E0008091E00081FDFCCF0895CF92FC
:1039A000DF92EF92FF920F931F93CF93DF93EC017F
:1039B0008B016A010E942E1E811133C0C114D104F3
:1039C00039F0F60180819181081B190BC80FD91FAE
:1039D000E12CF12C0115110519F18091E80085FD0C
:1039E00016C08091E8008E778093E800C114D1045E
:1039F00049F0F60180819181E80EF91EF182E082A2
:103A000085E00FC00E942E1E882321F30AC08991F1
:103A10008093F10001501109FFEFEF1AFF0ADACF8E
:103A200080E0DF91CF911F910F91FF90EF90DF9099
:103A3000CF90089520912F0230913002261737073A
:103A400048F06115710539F42091E8002E77209334
:103A5000E80001C0B90140E06115710599F12091BC
:103A60002802222309F441C0253009F440C02091E6
:103A7000E80023FD3EC02091E80022FD30C02091E7
:103A8000E80020FFE9CF2091F2003091F300FC0123
:103A9000CF016115710559F02830310540F481914D
:103AA0008093F100615071092F5F3F4FF1CF41E0EA
:103AB0002830310509F040E02091E8002E7720936E
:103AC000E800CACF4111CBCF0AC0809128028823D9
:103AD00061F0853061F08091E80083FD0AC080913B
:103AE000E80082FFF2CF80E0089582E0089583E04D
:103AF000089581E0089520912F0230913002261719
:103B0000370748F06115710539F42091E8002E77E8
:103B10002093E80001C0B901FC0120E061157105A6
:103B200081F180912802882309F43EC0853009F490
:103B30003DC08091E80083FD3BC08091E80082FD9C
:103B40002DC08091E80080FFE9CF8091F200909134
:103B5000F3006115710559F08830910540F4249106
:103B60002093F1003196615071090196F2CF21E066
:103B7000089709F020E08091E8008E778093E800B4
:103B8000CDCF2111CECF0AC080912802882361F0C9
:103B9000853061F08091E80083FD0AC08091E800E3
:103BA00082FFF2CF80E0089582E0089583E00895D7
:103BB00081E00895982F973058F59093E900981771
:103BC00039F07091EC002091ED005091F00003C0AD
:103BD000242F762F50E021FF19C03091EB003E7F5B
:103BE0003093EB003091ED003D7F3093ED0030914C
:103BF000EB0031603093EB007093EC002093ED000C
:103C00005093F0002091EE0027FF07C09F5FD3CFB5
:103C10008F708093E90081E0089580E0089580919D
:103C2000290287FF11C08091E80082FD05C08091C4
:103C300028028111F8CF11C08091E8008B770BC06A
:103C400080912802882349F08091E80080FFF8CF16
:103C50008091E8008E778093E80008952091E40039
:103C60003091E50095E64091EC00842F817040FF93
:103C700022C08091E80080FD1CC08091280288232A
:103C800091F0853091F08091EB0085FD10C040915E
:103C9000E4005091E5004217530729F39A0191502F
:103CA00011F784E0089582E0089583E0089581E0AB
:103CB000089580E008954091E80042FFDECF089526
:103CC0000E94D11E0E94D91EE0EEF0E0808181604A
:103CD0008083E8EDF0E080818F77808319BCA7EDC9
:103CE000B0E08C918E7F8C9380818F7E8083109248
:103CF000270208950F931F93CF93DF930E94D11E45
:103D00000E94D91EC8EDD0E088818F778883888192
:103D10008068888388818F7D8883E7EDF0E08081EB
:103D20008068808319BC109228021092240210929D
:103D300026021092250200EE10E0F80180818B7FB0
:103D4000808388818160888342E060E080E00E9417
:103D5000DA1DE1EEF0E080818E7F8083E2EEF0E01C
:103D6000808181608083808188608083F801808188
:103D70008E7F8083888180618883DF91CF911F91BE
:103D80000F910895E8EDF0E080818F7E8083E7ED6C
:103D9000F0E080818160808381E0809327020C9431
:103DA0007A1EE8EDF0E080818C7F80831092E20043
:103DB00008951092DA001092E10008951F920F9278
:103DC0000FB60F9211240BB60F922F933F934F9380
:103DD0005F936F937F938F939F93AF93BF93EF9373
:103DE000FF938091E10082FF0BC08091E20082FF8F
:103DF00007C08091E1008B7F8093E1000E94011B4E
:103E00008091DA0080FF1FC08091D80080FF1BC026
:103E10008091DA008E7F8093DA008091D90080FF54
:103E20000DC084E189BD86E189BD09B400FEFDCFE6
:103E300081E0809328020E94EC1A05C019BC109200
:103E400028020E94FA1A8091E10080FF19C0809137
:103E5000E20080FF15C08091E2008E7F8093E20037
:103E60008091E20080618093E2008091D8008062BE
:103E70008093D80019BC85E0809328020E94FE1A26
:103E80008091E10084FF30C08091E20084FF2CC06B
:103E900084E189BD86E189BD09B400FEFDCF809132
:103EA000D8008F7D8093D8008091E1008F7E809331
:103EB000E1008091E2008F7E8093E2008091E20039
:103EC00081608093E20080912402882311F084E0D5
:103ED00007C08091E30087FD02C081E001C083E05C
:103EE000809328020E94FF1A8091E10083FF29C07D
:103EF0008091E20083FF25C08091E100877F80935D
:103F0000E10082E080932802109224028091E10077
:103F10008E7F8093E1008091E2008E7F8093E200AB
:103F20008091E20080618093E20042E060E080E006
:103F30000E94DA1D8091F00088608093F0000E945A
:103F4000FD1AFF91EF91BF91AF919F918F917F915A
:103F50006F915F914F913F912F910F900BBE0F90FA
:103F60000FBE0F901F9018951F920F920FB60F92D1
:103F700011240BB60F922F933F934F935F936F9340
:103F80007F938F939F93AF93BF93CF93DF93EF93E1
:103F9000FF93C091E900CF708091EC00D82FD170D1
:103FA00080FDD0E81092E9008091F000877F809337
:103FB000F00078940E94FC1F1092E9008091F000BC
:103FC00088608093F000CD2BCF70C093E900FF9103
:103FD000EF91DF91CF91BF91AF919F918F917F91A1
:103FE0006F915F914F913F912F910F900BBE0F906A
:103FF0000FBE0F901F9018951F93CF93DF93CDB7EF
:10400000DEB7AA970FB6F894DEBF0FBECDBFE9E2C8
:10401000F2E088E08E0F9091F10091938E13FBCF28
:104020000E94561B8091E80083FF28C180912902DD
:1040300090912A02492F50E04A30510508F01EC1E4
:10404000FA01EF56FF4F0C949121803821F082380D
:1040500009F014C108C0809125029091260299238D
:1040600089F082600FC080912D028F70873008F038
:1040700005C18093E9008091EB0085FB882780F9DA
:104080001092E9009091E800977F9093E800809368
:10409000F1001092F100D0C0282F2D7F09F0EEC062
:1040A000882319F0823061F0E9C080912B028130C1
:1040B00009F0E4C0933009F080E0809326022EC01E
:1040C00080912B0281112AC080912D028F702FEFD9
:1040D000280F263008F0D2C08093E9002091EB0031
:1040E00020FF1CC0933021F48091EB00806214C04B
:1040F0009091EB0090619093EB0021E030E0A901FA
:1041000002C0440F551F8A95E2F74093EA001092CF
:10411000EA008091EB0088608093EB001092E90048
:104120008091E800877F8093E8000E940F1EA6C060
:104130008111A4C010912B021F778091E300807839
:10414000812B8093E3008091E800877F8093E800D3
:104150000E940F1E8091E80080FFFCCF8091E30059
:1041600080688093E300111102C082E001C083E007
:104170008093280283C08058823008F07FC08091ED
:104180002B0290912C028C3D53E0950779F583E04A
:104190008A838AE289834FB7F894DE01139620E080
:1041A0003EE051E2E32FF0E050935700E49120FF0E
:1041B00003C0E295EF703F5FEF708E2F90E0EA3022
:1041C00010F0C79601C0C0968D939D932F5F243148
:1041D00049F74FBF8091E800877F8093E8006AE24B
:1041E00070E0CE0101960E941A1D15C060912D024B
:1041F00070912E02AE014F5F5F4F0E94411CBC01C7
:10420000892BE1F19091E800977F9093E8008981F4
:104210009A810E947B1D8091E8008B778093E80053
:104220002DC0803859F58091E800877F8093E800A1
:10423000809124028093F1008091E8008E7773CF03
:1042400081111CC090912B029230C0F48091E80043
:10425000877F8093E800909324020E940F1E809134
:104260002402811106C08091E30087FD02C081E035
:1042700001C084E0809328020E94421B8091E800E4
:1042800083FF0AC08091E800877F8093E8008091D7
:10429000EB0080628093EB00AA960FB6F894DEBF25
:1042A0000FBECDBFDF91CF911F910895CF93809125
:1042B00028028823A1F0C091E900CF709091EC0012
:1042C000892F817090FD80E8C82B1092E9008091C1
:1042D000E80083FD0E94FC1FCF70C093E900CF91DE
:1042E0000895991B79E004C0991F961708F0961B52
:1042F000881F7A95C9F78095089597FB072E16F4C5
:10430000009407D077FD09D00E949A2107FC05D0C0
:104310003EF4909581959F4F0895709561957F4FDC
:104320000895EE0FFF1F0024001C0BBE0790F691AE
:10433000E02D0994AA1BBB1B51E107C0AA1FBB1F9C
:10434000A617B70710F0A61BB70B881F991F5A9521
:10435000A9F780959095BC01CD010895F999FECFFC
:1043600092BD81BDF89A992780B50895A8E1B0E083
:1043700042E050E00C94D621262FF999FECF92BD51
:1043800081BDF89A019700B4021639F01FBA20BD1A
:104390000FB6F894FA9AF99A0FBE08950196272F4E
:1043A0000E94BD210C94BC21DC01CB01FC01F999D8
:1043B000FECF06C0F2BDE1BDF89A319600B40D9271
:0C43C00041505040B8F70895F894FFCF2A
:1043CC00F7012808140A321E1B1AB91A8E1A581A29
:1043DC001E1A01C797C6C0F0C1F160F261F362F416
:1043EC0063F59192933194309536373534336401BB
:1043FC00020304050607080900404D3622AF05628A
:0E440C00052C050A059604AF04C804E104005F
:00000001FF
